:020000040000FA
:10000000801E0020C100000011A00000BD6900009A
:10001000FFFFFFFFFFFFFFFFFFFFFFFFFFFFFFFFF0
:10002000FFFFFFFFFFFFFFFFFFFFFFFF71CB0000A0
:10003000FFFFFFFFFFFFFFFF95AE000071D2000042
:1000400035010000350100003501000035010000D8
:100050003501000035010000995F00003501000006
:10006000D13E0000FFFFFFFF35010000D565000015
:100070006D6500003501000035010000FFFFFFFF46
:10008000FFFFFFFF350100003501000035010000D2
:100090003501000035010000350100003501000088
:1000A0003501000035010000350100003501000078
:1000B00035010000350100003501000075A0000089
:1000C0002048804720488047204800472048016951
:1000D000002908D14169002905D18169002902D18F
:1000E000C169002909D01B48C1680901090D00290F
:1000F0000ED005290CD006290AD0BFF34F8F164821
:100100001649016016491548C860BFF34F8FFEE7D6
:10011000114801681148884200D0704711481249BF
:1001200001600D48114901607047FEE7FEE7FEE7F8
:10013000FEE7FEE7FEE700000D480E490C4A0E4BB5
:1001400070470000CD00000085D200007D01000056
:100150000003084080010840000000200400FA0568
:1001600000ED00E0008108400100000000000000F8
:1001700080120020801E00208012002000F002F873
:1001800000F0AFF80CA030C8083824182D18A2468B
:10019000671EAB4654465D46AC4201D100F0A1F863
:1001A0007E460F3E0FCCB6460126334200D0FB1AE6
:1001B000A246AB46334318470CDF01002CDF010099
:1001C0000023002400250026103A01D378C1FBD873
:1001D000520700D330C100D50B60704710B56E29AF
:1001E00002D101F097FB10BD702902D101F0D9FCBA
:1001F00010BD662902D116F04BF910BD652902D158
:1002000016F046F910BD672902D116F041F910BD6C
:10021000612902D1C046C04610BD03681B0A01D344
:1002200080231943692902D101F03EFB10BD6429E6
:1002300002D101F039FB10BD752902D101F034FB68
:1002400010BD6F2902D101F057FC10BD782902D1F1
:1002500001F094FC10BDE92902D101F0F3FB10BDBF
:10026000E42902D101F0EEFB10BDF52902D101F025
:10027000E9FB10BDEF2902D101F04AFC10BDF829BD
:1002800002D101F089FC10BD0368DB0901D3802392
:100290001943632902D102F076F910BD732902D106
:1002A00002F079F910BDE32902D102F083F910BD03
:1002B000F32902D102F086F910BD002010BD1FB550
:1002C00002F0F6FA04000020002115F0A1FE401C07
:1002D00060600020002115F085FEE0601FBD10B5B4
:1002E00010BD02F0C5FA1146FFF7E9FF12F03AF827
:1002F00003F0F2F803B4FFF7F2FF03BC03F03CF99C
:1003000070B505460C46164602E00FCC0FC5103EF0
:10031000102EFAD2082E02D303CC03C5083E042EB9
:1003200007D301CC01C5361F03E021782970641C76
:100330006D1C761EF9D270BD7CB51D4616460C00AC
:10034000009001D00019401E084B7B442A466946A4
:100350000190304601F0F7FA002C054603D06946BB
:10036000002001F003FB28467CBD00002916000098
:1003700070B5064601F01AFA0468054630460A22AE
:10038000002101F035FD2C6070BD10B5431E5C7876
:100390005B1C002CFBD105E00C78491C1C705B1C1D
:1003A000002C03D0521EF7D20021197010BD30B5B9
:1003B00005460B462A461C781078521C5B1C002808
:1003C00001D0A042F7D0002C03D0002802D06D1C31
:1003D000EFE7284630BDF7B505460E460020044637
:1003E00000E0641C02998C420BD2285D01F0EDF90B
:1003F0000746305D01F0E9F9381A02D1295D00297C
:10040000EFD1FEBD30B5441C03E00178401C00294B
:100410000DD08107F9D10B4BDD0104C8D11A9143EE
:100420002940FAD0001B0A0603D0C01E30BD001BB5
:1004300030BD0A0401D0801E30BD0902FCD0401E30
:1004400030BD0000010101010346F0B50B439B07DD
:100450002DD1244DEF01042A29D308C810C95E1BF1
:100460009E43121F3E4017D0D8B2E1B2401A310667
:10047000014310D198B2A1B2401A310401430AD10C
:1004800018022102000A090A401A3102014302D16E
:10049000180E210E401AF0BDA342DCD018BA21BAC2
:1004A000884201D90120F0BD0020C043F0BD002AE0
:1004B00001D10020F0BD03780C78401C491C002BB2
:1004C0000DD0A3420BD1521E09D003780C78401CEA
:1004D000491C002B03D0A34201D1521EEBD1181BA3
:1004E000F0BD000001010101F8B5042A2CD38307F7
:1004F00012D00B78491C0370401C521E83070BD08E
:100500000B78491C0370401C521E830704D00B78E3
:10051000491C0370401C521E8B079B0F05D0C91A43
:10052000DF002023DE1B08C90AE0FFF7E9FEF8BD63
:100530001D4608C9FD401C46B4402C4310C0121F84
:10054000042AF5D2F308C91A521EF0D40B78491CBC
:100550000370401C521EEAD40B78491C0370401CE7
:10056000012AE4D409780170F8BD431A70B59342AA
:100570001BD28918801804E0491E401E0B78521EB9
:1005800003709307F8D106E01039103878C9103994
:1005900078C01038103A102AF6D203E0091F001F65
:1005A0000B680360121FF9D570BDFFF7A9FE70BD7F
:1005B000F8B5064614460843800707D0751AA542C9
:1005C00019D20819102D13D2311907E03046FFF760
:1005D000CCFFF8BD401E491E02780A70641EF9D295
:1005E000F8BD471B2A463946FFF77EFF641B384695
:1005F000A542F6D3011B22463046FFF775FFF8BD32
:10060000D2B210B513029A1813049A1800F00EF81B
:1006100010BD01E004C0091F0429FBD28B0701D5DE
:100620000280801CC90700D00270704700290BD0DF
:10063000C30702D00270401C491E022904D383075D
:1006400002D50280801C891EE3E70022EEE700222B
:10065000DFE70000F8B507460B463946194389071E
:1006600013D1164CE601042A0FD302CB0D1B8D4388
:10067000354202D102C0121FF5E7CBB20370401C15
:10068000521E002B13D0090AF7E7002A14D019785C
:10069000521E5B1C0170401C002908D0002A0BD0A0
:1006A0001978521E5B1C0170401C0029EDD1002AF4
:1006B00002D01146FFF7C9FF3846F8BD010101011C
:1006C00082078B079A4237D170B5920F0AD0032464
:1006D00002780B78401C491C002A2BD09A4229D161
:1006E0002042F5D11D4EF40104C808C9951B95435D
:1006F000254010D19A4207D104C808C9951B9543DB
:10070000254008D19A42EFD012BA1BBA01209A4272
:1007100000D2404270BD12BA1BBA2DBA1824100084
:10072000E0401900E140401A05D12E00E64002D118
:10073000083CF4D1D01A70BD02780B78401C491CDB
:10074000002A09D09A4207D102780B78401C491C34
:10075000002A01D09A42EFD0D01A7047010101015E
:10076000002203098B4273D3030A8B4258D3030B35
:100770008B423CD3030C8B4221D312E003460B4344
:100780007FD4002243088B4274D303098B425FD38A
:10079000030A8B4244D3030B8B4228D3030C8B42B6
:1007A0000DD3FF22090212BA030C8B4202D312129C
:1007B000090265D0030B8B4219D300E0090AC30B71
:1007C0008B4201D3CB03C01A5241830B8B4201D31E
:1007D0008B03C01A5241430B8B4201D34B03C01A07
:1007E0005241030B8B4201D30B03C01A5241C30A7F
:1007F0008B4201D3CB02C01A5241830A8B4201D3F0
:100800008B02C01A5241430A8B4201D34B02C01AD9
:100810005241030A8B4201D30B02C01A5241CDD27E
:10082000C3098B4201D3CB01C01A524183098B42C9
:1008300001D38B01C01A524143098B4201D34B01B2
:10084000C01A524103098B4201D30B01C01A524115
:10085000C3088B4201D3CB00C01A524183088B429C
:1008600001D38B00C01A524143088B4201D34B0085
:10087000C01A5241411A00D20146524110467047F7
:100880005DE0CA0F00D04942031000D340425340FC
:1008900000229C4603098B422DD3030A8B4212D3BC
:1008A000FC22890112BA030A8B420CD389019211EE
:1008B0008B4208D3890192118B4204D389013AD02B
:1008C000921100E08909C3098B4201D3CB01C01A00
:1008D000524183098B4201D38B01C01A5241430913
:1008E0008B4201D34B01C01A524103098B4201D301
:1008F0000B01C01A5241C3088B4201D3CB00C01A6E
:10090000524183088B4201D38B00C01A5241D9D285
:1009100043088B4201D34B00C01A5241411A00D206
:100920000146634652415B10104601D34042002B02
:1009300000D54942704763465B1000D3404201B581
:100940000020C046C04602BD704770477047000097
:100950000246C80FC00781434B0030B54B405B00D7
:100960009B0D20D01923DB06C91801231B059942D2
:1009700020DB0324A40704251346AB400BD3002B34
:1009800004D1EB0613409B00E34204D40124640726
:10099000002312195941FF231B0599420BD2C900AC
:1009A0000143500F09E0CB0204D501430803024381
:1009B00005D0054830BDFF21C905084330BD0846B4
:1009C00007210905884330BD0000C07FF0B50C4603
:1009D000871A9C410D46861A9D4103D2C01BA14136
:1009E000D21963410D0D1F0DC94EEC1BAE435CD0F7
:1009F0007F057F0D0026002F51D02D05AC46A94361
:100A0000DD020123ED0A1B051D4320231B1B24D4FB
:100A10001746E740381871412F46E740CC199D40F2
:100A20002818314661410C0D27D161449A4013D5F5
:100A30000023401C594152000ED1400840000122C1
:100A40004B005205D34207D305204007C14201D5D0
:100A5000B04900E0B0493046F0BD6B00002A00D03C
:100A600001229A181F23203C1B1B01D5002302E002
:100A7000E540281871410C0DD7D00124240509192F
:100A8000C407CD0740084908E40F28436144002CFF
:100A9000D5D00024401C61419A40D0D1CDE76A05F1
:100AA000520DD9D1C90FC907D5E79C4D4E0000287A
:100AB00001D0012400E0002434195F00002A01D095
:100AC000012600E00026BE19954FAC420CD8AE427C
:100AD0000AD8B44206D001256D05EC42BCD01046C0
:100AE0001946F0BD9942FCD000203946F0BDF0B562
:100AF0001FB40C460F46811A9F412546861A9D4118
:100B000006D20125ED076F40401ABC4152187B41C7
:100B1000210D1E0D8D1BAC467D4D8D437ED0750580
:100B20006D0D7CD00D05AE46AC431B031B0B794D00
:100B300052429D41202366469B1B14D31746F74023
:100B4000381800260090744160462F460741E4198A
:100B500000989D402818664116D4714671189A4035
:100B600025D5012320E093182A466A415200002B24
:100B700000D0521C1E23203E9B1B002B61DD354103
:100B8000EE1728186641E8D5001876415B1C9A409C
:100B900000D3401C4B05F3181524E34010D3002B61
:100BA00052D071467118D30FC01802D3491C05B03A
:100BB000F0BD0123DB079A42F9D140084000F6E777
:100BC00001225205B21801D1002853D00123CC0ACA
:100BD000DB029943891E002A08D1020C03D0020CC3
:100BE0000004103902E00246002020390023550B92
:100BF00005D112020823550B01D152010D23550CCA
:100C000001D112011B1DD50C01D192009B1C150DA9
:100C100001D152005B1C2025EE1A01E02CE022E0FD
:100C20000546F54015439840CA1AE10769181305AF
:100C3000C918002ABBDA032040070818C10FC907EA
:100C40000FE071466118B2E7F107400808437110E0
:100C500071444A000CD001235B059A42A7D2C90F08
:100C6000C9070020A3E74905490D26D1002001E06E
:100C70000028F4D100219AE7284D6600002801D011
:100C8000012100E0002171185F00002A01D0012637
:100C900000E00026BE19224FA94210D8AE420ED85D
:100CA000B14208D001256D05E94206D01946A802D7
:100CB000414010467BE79C4201D0214677E7002067
:100CC000394674E710B50C465C4005D50124E407AD
:100CD0006340FFF70CFF10BDFFF778FE10BD30B486
:100CE0000C465C4004D50124E407634030BC6DE64B
:100CF00030BCFCE670B50124E40761400D465D4060
:100D000002D4FFF763FE70BD6340FFF7F0FE70BDD5
:100D1000FF0700000000F0FF0000F07F0000E0FF90
:100D20000000F87FF0B5F94D0C091E092C402E404B
:100D30002F468BB0A7437DD0B543FCD0002E7AD090
:100D4000002CFCD00D465D40ED0F2543AC1BFF256C
:100D5000AD0464190894C502440DC9022143500D25
:100D6000DC0204430120C00701430443D202019185
:100D7000200C110C00958C46010423468B430A91EC
:100D800061460904E24D8A430991010A7D444919EB
:100D90008039097805464D4301266D18F605751B07
:100DA0006943C90C640B891C4C436418B5012C1BA6
:100DB000250C2E04B4434C434D43210C691889097A
:100DC0000591009DE90701D00121C90704912C4636
:100DD00001996708CD072F434C08059DE10B4D4352
:100DE0002D0C29466646754302950D4645432E4611
:100DF000029D7D1BB44100950D465D4301942C0C72
:100E00002F040D465543AE462D0C3D4302950394E9
:100E10007546049C2D04641B049406D2029C039D19
:100E2000641C002675410395029401AC70CC009FB0
:100E30007D1B01E03EE162E1B441090400950791A8
:100E400001940599A4086143090C0C464443650BC1
:100E5000E7040C4666467443A646640B3C43039580
:100E600002947446049DE4042C1B049406D2029C54
:100E7000039D641C002675410395029401AC70CC5F
:100E8000009F7D1BB44101940C465C430095650FA7
:100E9000E7000C465443A646640F3C430395029476
:100EA0007446049DE4002C1B049406D2029C039D0E
:100EB000641C002675410395029401AC70CC009F20
:100EC0007D1BB441AE09AF06049DC900AD092F4397
:100ED000049DA406AD060495079D34436918079147
:100EE000059DE10B4D432D0C294666467543029541
:100EF0000D4645432E46029D7D1BB44100950D468F
:100F00005D4301942C0C2F040D465543AE462D0C29
:100F10003D43029503947546049C2D04641B049480
:100F200006D2029C039D641C002675410395029421
:100F300001AC70CC009F7D1BB44101948C050694DC
:100F4000079C890A611800950791019C0599A408DE
:100F50006143090C0D464543680BEF040D4664469A
:100F600065436C0B3C43049FED047D1BAC4602D2F1
:100F70000025641C6841009E019D371B8541084681
:100F8000584301950C46460FC5005443600F284353
:100F90006546E4002C1B02D20025401C6E41019DD9
:100FA0003F1AB5412846BD09800628438446A0095A
:100FB000BF064E020699A40676180743079D002037
:100FC00068410A99079019430020099B00906046E8
:100FD000FF1913434041E20F64003A43A44604461C
:100FE000D71A8C41A04203D90120009020463A46EE
:100FF000C70F941840416246D20F224364466400F2
:101000000494009CBE466400D71AA4460446029786
:101010008C417746002F01D1A04204D96046401C84
:101020008446029A2046C40FA64694184041049A6A
:101030000546D20F224364466400D31A8D4171469F
:10104000002901D1A84202D928461A46641C10433F
:101050000122002800D0164361020020079B891955
:1010600004465C410223002C02DB4918134664410C
:10107000089DCE0A2D145D194B056705E10A2C0564
:101080000D1908993E43C9076940002B08D09340C9
:1010900006D30022761C5141002B01D17608760040
:1010A0001C4A002D43DB154241D0AA433FD03046B5
:1010B0000BB0F0BD06180D464D41174C7642AC41C1
:1010C0001AD395181C465C41134A6D42A24113D3B2
:1010D000012252054C00D4420AD15C00D4420BD00C
:1010E0004B4002D592021143E2E749004908DFE78D
:1010F0005940C90FC90718E000200849D8E705483A
:1011000001420DD10342F7D0F2E700000000FF07D3
:10111000C86001000000F07F0000E0FF0000F87FE1
:10112000114859400143C01241400020C0E701234B
:10113000089A9B069A4205DC032252078918C90FB8
:10114000C907B5E7052252078918074A1143D21289
:101150005140ADE770B515461C4602460B46284681
:101160002146FFF7DFFD70BDFFFFFF7F30B503466F
:10117000CA02400D1043164D164C0A1502D02043EA
:10118000002A06DBAA1A002A12DDD040FF2A0BDC57
:1011900030BD5205520D01D140004008AA1A07D4B3
:1011A000D0404042FF2A01DD002030BD0028FCDD98
:1011B0004A00002B01D0012000E00020101801227D
:1011C0005205D042F0D8C817C043604030BD00007F
:1011D0001E040000000000801F22030C02D10F2219
:1011E000000402D0030E03D004E000200146704743
:1011F0000002083A030F01D10001121F830F01D131
:101200008000921E002801DB4000521E120551187A
:101210004205C012411810467047C10FC90700D0DF
:101220004042012292071143D6E701218907D3E703
:10123000F0B58B4C0F09254689B0BD437BD01D0905
:101240002646AE43FAD00E465E402740F60F3E4398
:10125000254071D024012142FBD0FF24AD19A40404
:101260002D1B039501252D05DB02DB0AC9022B434B
:10127000C90A29431E010901040F130F0501214367
:101280001701880B820391432D098C46A90B1E433D
:101290008A039543B30B9A0396433F09BA0B940311
:1012A000A74302962E467E430497B6464E19D71999
:1012B0000C460196544305977E43371B7646BF1B69
:1012C0003601B646BE0B361900967646BC04371971
:1012D000009C01D3641C00946400002F01D00126FF
:1012E0003443029E049F754366467E43049676000F
:1012F00034196E0034190094029C019E1C19664337
:10130000751BAE46069465464519059C05956C43CC
:10131000594375460891691A0191049E014651434B
:10132000A41B0491611A009C0791E10605D0610994
:101330000122114302E072E06EE06109089D00277E
:101340002C0A2D066918049D7C412A0A2D0669186D
:10135000019D6241AC0DAD026D185441079A910D8B
:10136000920255196141029A644658435443069BC0
:10137000059A5A43121A131B9A0E9B015B187A4165
:10138000010B0005C3185141220A200644195A4195
:101390009A4200D2491C01204002814203D3152306
:1013A0000226F64302E014230326F6432020C51A42
:1013B000A9401746AF40DA400A4320460399D84077
:1013C0000914731819055118039A3843D20751406C
:1013D000AC4009D00122944006D30022401C514168
:1013E000002C01D1400840001E4A934212D3012232
:1013F00003989206904207DB0520400709181A4817
:101400000143C012414004E0032040070818C10F07
:10141000C907002009B0F0BD0020F107FAE7051860
:101420000C464C4111486D42A04115D394181A4600
:101430005A410E48644290410ED301204A004005B3
:10144000824209D35A00824206D35940C90F084A42
:10145000C90700201143DDE700200649DAE7000054
:101460000000FF07FE070000FFFFFF7F0000E0FF16
:101470000000F07F0000F87F70B505464800440D7D
:10148000124B0020002C0AD0634008D09A4206DAA2
:101490006642B24203DD12054019514170BD002C75
:1014A00008D0002B09D0C90FC907002AF6DB084A6B
:1014B000114370BDC90FC90770BD28460A03104308
:1014C00002D00020034970BD284670BDFF07000010
:1014D0000000F07F0000F87F0121C90501234118B9
:1014E00042001B06D3185B0E0AD0C1100722D20699
:1014F000891840075242D14201D5520089187047DD
:10150000090208D50146002A03D0C10FC9070020EF
:10151000704710467047420202D0002002497047CF
:10152000072109050143F4E70000F87FF0B5FF2526
:101530002D04C609C209FF2704462E400137CB09F6
:101540003E4348402A402B400746002A6BD0002BE0
:1015500069D0AA4267D0AB4265D0002800DA324693
:101560000125ED0529432C4309022002090AD21A5C
:101570004B0C7F24E31A434C000A7C44E35C7D243B
:101580002404121914145B00A218884201D3521CBF
:1015900000E0400049420C465C4324115C43DB01FF
:1015A0006415E318040A5C43C502200D0C4644434D
:1015B0006419250A5D432303EC0C0D4665430003C3
:1015C0000019EB184C42A34201D35B18401CD40510
:1015D0002018002B07D05B00C91804D3401C002939
:1015E00001D1400840003F2189048A4209D3002AE2
:1015F00008DC1106090F04D0032149074018C00F69
:10160000C007F0BD01224100120689187F22520650
:101610009142F6D205214907C84201D59010F0BD8C
:10162000FF20C005F0BD002F00DA32461648AA425E
:1016300007D2AB4205D21902090E17D0F80FC00726
:10164000F0BDFF2563002D06AB42F9D84900A94241
:10165000F6D8AB4201D1A942F2D0A94201D1002172
:1016600001E061004908D0050843F0BD1102090EF0
:10167000FBD0FF200243D005F0BD0A4601461046CC
:1016800054E700005A5901000000C07F10B5014620
:101690009E240002CA15A307002A02D01843002A7C
:1016A00004DBA21A002A0CDDD04010BD1206120E77
:1016B00001D140004008A21A03D4D0404042002883
:1016C000F3DDFF2248001206904201D9002010BD30
:1016D000C817C043584010BD0102C21504D00123F1
:1016E000DB071943002A0ADB9E239A1A02D4084614
:1016F000D0407047FF2241001206914201D90020DC
:101700007047C017C04370471F22030C02D10F223D
:1017100000041CD0030E01D10002083A030F01D1CE
:101720000001121F830F01D18000921E002801DBEF
:101730004000521ED2055118021251181922904031
:1017400004D3491C002801D14908490008467047C4
:10175000C10FC90700D04042012292071143D3E7CD
:1017600001218907D0E7000010B5FF22C30D134007
:1017700009D05A4007D0914205DA5C42A14202DD0D
:10178000C905081810BDC40FE407002B06D0002AB5
:1017900006D0002902DBFF20C0050443204610BD0F
:1017A0004102FCD0004810BD0000C07F00487047D7
:1017B0001C12002010B5FFF7F9FF006810BD10B52E
:1017C0000446FFF7F3FF046010BD10B5044600F0B7
:1017D0001DFC0068005DC00602D52046203010BD0B
:1017E000204610BD70B5044685690068C10601D564
:1017F000302600E02026C00707D070BD6268304662
:10180000A1689047206A401C20626D1EF6D570BD0D
:1018100070B5044685690078C00707D170BD62685D
:10182000A16820209047206A401C20626D1EF6D5DA
:1018300070BD09684A0501D540B27047C905FCD59D
:1018400000B2704709684A0501D5C0B27047C905A2
:10185000FCD580B2704770B50C460546012A05D00C
:101860002878800600D5EA69002302E0012305E01C
:101870005B1C934202D2E05C0028F9D1A869E6180B
:10188000C01AA861286AC01828622846FFF7AAFF74
:1018900004E06A682078A968641C9047B442F8D3D1
:1018A0002846FFF7B5FF70BDF7B50025752910680C
:1018B000009914A611D0FFF7BCFF002802DA4042BD
:1018C00011A608E0009909688A0701D50FA602E071
:1018D000490704D50EA6012501E0FFF7B3FF009FDD
:1018E0000024243704E000F006FF30313955641C31
:1018F0000028F8D12B4632462146009800F0D4FB50
:10190000FEBD0000000000002D0000002B000000C4
:101910002000000011680268006A530501D50870B4
:1019200009E0D30501D5088005E0130602D5C217EA
:1019300005C100E0086001207047000001694A1CF1
:1019400002610878704700B58FB0029100210591BF
:10195000054901937944039111460490684600F0CB
:101960002DF90FB000BD0000E5FFFFFF0A68107001
:10197000521C0A6070470CC908399A4202D2531CA3
:101980000B60107070470000F7B50446154686B02E
:101990002B487844002703C83E460090019111E08F
:1019A00007986A467100415A02A800F084FE411C63
:1019B00007D02178890603D5E269391891420ED8FB
:1019C0003F18761C2078800602D5E069B84206DD13
:1019D000AE42E5DB07987100405A0028E0D1A069CB
:1019E000C01BA0612046FFF7FDFE154878445A3819
:1019F00003C800900020019116E041006A46079854
:101A0000415A02A800F057FE0590401C0AD000255C
:101A100005E0626802A8A168405D90476D1C0598CA
:101A20008542F6D30498401CB0420490E5DB206A5E
:101A3000C01920622046FFF7EBFE09B0F0BD0000A0
:101A400042560100F7B5D21D0025D20815A6D200D6
:101A5000F52905CA11D0002A05DA0021404291413A
:101A600011A60A4608E0009909688B0701D50FA660
:101A700002E0490701D50EA601251146009F00246A
:101A8000243704E000F0CAFA30323A55641C0246AA
:101A90000A43F7D12B4632462146009800F004FB5A
:101AA000FEBD0000000000002D0000002B00000023
:101AB0002000000070B504460021243408E05507DA
:101AC000D2086D0F303565545D072A43DB08491C89
:101AD00015461D43F3D10468002310A2250708D53D
:101AE000A40601D4002904D0C46901230CA2641EF9
:101AF000C46100F0D9FA70BD10B5044621461068E3
:101B0000FFF7A0FE002302462046FFF7D3FF10BDDB
:101B1000D21DD108C9000CC9CCE7000000000000AC
:101B200030000000F8B50F460188090502D5224CA7
:101B30007C4402E0204C7C440E34054600212435D0
:101B400008E016071209360FA65D6E541E073243D1
:101B50001B09491C16461E43F3D122460478002374
:101B6000240705D5702F06D0002901D00223113299
:101B700000F09AFAF8BD01231032F9E770B5044677
:101B80000D4621461068FFF75DFE002302462946F8
:101B90002046FFF7C7FF70BDD21DD308DB000CCB7A
:101BA000C0E730B40368202412682343036008238D
:101BB000C36130BC0023B5E7AC540100F3B5044663
:101BC000002081B020622046E1688847002872D05A
:101BD000252802D06268A168ABE0594F00267F44F7
:101BE0002046E16888472028054608DB312D06D2CB
:101BF000781920380078002801D00643F0E7B007B4
:101C000001D5042086430020E0610746A0612A2D0B
:101C10000AD028460DF00EF9002827D0B800001988
:101C2000303D0090856119E00298BA00121902C88F
:101C3000916102902046E1688847012F054617D13F
:101C4000E06900281FDA202086431CE000980A2162
:101C50008069484300994019303888612046E1681E
:101C6000884705460DF0E6F80028EFD1012F0AD08D
:101C70002E2D08D12046E1688847054620200643DE
:101C80007F1C022FC3DBA069002803DA4042A06159
:101C900001200643F00701D0102086436C2D0BD0A5
:101CA000682D09D04C2D3CD06A2D38D0742D38D0F9
:101CB0007A2D36D016E040E0E1682F46204688476E
:101CC000B842054609D16C2F29D001208002E16875
:101CD000064320468847054604E06C2F1DD0FF20B0
:101CE00001300643002D28D028464138192803D852
:101CF0000120C00206432035204626602946029A6C
:101D00001646FEF76BFA002810D001280BD0F61DFE
:101D1000F008C0000830029055E74020E1E780203D
:101D2000D5E70020D3E7361D02964CE762682846C7
:101D3000A1689047206A401C44E7206AFEBD00006D
:101D4000265401000FB4002300B589B00CA90091FE
:101D50000B99CB60224B7B44224A7A44079204229F
:101D600006930192204A0292204A7A446B460892D6
:101D70000246002014F094FB09B008BC04B01847D8
:101D800070B5064615460C46324686B00020C04364
:101D900001900020049004A8009102916946FFF789
:101DA000D1FF024604982118002D05D0002801D04B
:101DB000084600E020462860049800280DD0002A3C
:101DC00002DD0098884208D03246081B694601901F
:101DD00004A800940294FFF7B5FF06B070BD0000A0
:101DE000730800008F080000FFFFFF7F2903000039
:101DF000F7B50F460026009C2578641C002D05D001
:101E000000F004F90068405DC007F5D12B2D02D029
:101E10002D2D18D0641E3946029A204600F0F8FB9A
:101E2000002F04D03968A14201D1009939607105B1
:101E3000022400290BDA4042002803DDFFF7B6FC3C
:101E40000460A007FEBD012080020643E3E70028EE
:101E5000F8DAFFF7ABFC04600048FEBDFFFFFF7F30
:101E6000F8B5224C4E00069DA6420AD8A64201D1E2
:101E7000002806D15E00A64203D8A6420AD1002A55
:101E800008D00D24240425422CD02946002000F03F
:101E900046FCF8BD0C461C430CD4994202D0EFF32B
:101EA0000080F8BD904202D0EFF30080F8BDEFF360
:101EB0000080F8BD09242407E5008B4206D0EFF32B
:101EC0000080A043591A06D2284304E0101A05D313
:101ED000EFF30080A04380F30088F8BDEFF30080AB
:101EE000A043F1E7009500F031FCF8BD0000E0FFF1
:101EF000F8B5064601270E43FF0509220546F41BE7
:101F000012070D43D300F619002D1CDB002E09DB50
:101F1000002C24DB401A02D3EFF300800AE0EFF339
:101F200000800BE0F84234D4F94232D4401A03D393
:101F3000EFF30080904303E0EFF3008090431843F9
:101F400080F30088F8BD002E11DA002C07DA081A99
:101F500002D3EFF30080EDE7EFF30080EEE7001A25
:101F600002D3EFF30080E5E7EFF30080E6E701241A
:101F7000450024066D42A5420BD94D006D42A54295
:101F800007D9081A02D3EFF30080D3E7EFF30080FC
:101F9000D4E7024A00F004F8F8BD0000090010047C
:101FA00010B5FF231B0644009C421DD84C009C42E8
:101FB0001AD80346124A0B4307D4401A02D3EFF350
:101FC000008010BDEFF3008010BD081A06D2EFF3B9
:101FD000008001219043C907084302E0EFF300802D
:101FE000904380F3008810BD0D231B041A4204D0D7
:101FF0001146002000F093FB10BD00F031FC10BD35
:1020000000000090004870471C12002010B500F03E
:102010004FFC001D10BD00BFF93F01000B4670B51D
:10202000024689078008084319469D08141AA941E9
:1020300025090807054308092C194841250A010606
:102040000D43010A2C194141200C0D0428430D0CAD
:1020500000194D41002140194D41C008690708434E
:10206000E908840F8D002543840024184D4124196C
:102070006D41121BAB4107E00925ED432C115219AC
:1020800063410024401C61411C460A250026551B63
:10209000B441F1D270BD10B50446FFF7B7FF006838
:1020A000005DC007C00F10BDFFB504460D4681B0EE
:1020B000243000902168880604D51022E0699143FD
:1020C000216000E00120A84201DD471B00E000275D
:1020D0000498A1697A191018081AA0612078C0061E
:1020E00002D42046FFF77EFB002608E003986268D2
:1020F000A168805D9047206A401C761C206204988D
:102100008642F3DB2078C0060AD52046FFF76AFB3B
:1021100006E06268A16830209047206A401C206277
:1021200038467F1E0028F4DC07E000986268A1684A
:10213000405D9047206A401C206228466D1E0028A2
:10214000F3DC2046FFF764FB2078000602D502206E
:1021500005B0F0BD0120FBE77047FFB50C461E46F9
:102160008FB003CA089009914F007D0D00D16D1EFC
:10217000002108460020C0460321099A890508402D
:10218000002A03DA8200801840080840800D0128E8
:102190000A9002DD0020C0430A90089807430DD042
:1021A000F048F149281848430714189800281DD012
:1021B0007542291E1DDD0A9842421BE0189801282D
:1021C00002D00020302104E00020F24305E0215439
:1021D000401CB042FBDB30460022189B00212154FA
:1021E0000F998B600A60486013B0F0BDBD1B6D1C79
:1021F000DFE70A9A002900DA69420BA800F040FEE6
:102200000BAB07CB03AB07C30899099800F0A4FEFA
:102210006B4607C30146D5480918002D00910BDD18
:10222000D24903980A9A49424018002303A903900F
:10223000684601F001F908E003990A9A002308189A
:1022400003A90390684601F0A1F86B4607C3000498
:10225000000C03D00020C043410800E01046189A4B
:10226000002A03D00022009215461EE0751E05D4F8
:10227000FFF7D4FE303262556D1EF9D501220843B6
:10228000079602D000227F1C04E02078302801D17C
:1022900000227F1E002A069787D01EE0112D07DA44
:1022A000FFF7BCFE303262556D1C02460A43F5D181
:1022B000084303D00098002819D00EE00021681EC2
:1022C00005E0235C625C63542254401E491C814239
:1022D000F7DBA81B401E07950690079A1899002067
:1022E000A0540F98079B069A81600CC07CE71126CA
:1022F0000020189059E7D21DF0B50D460446D108CC
:1023000093B0C90003C90C900D910CF081FC0246FA
:102310000D98C00F01D02D2007E02068810701D55E
:102320002B2002E04007C00F4001032A0F9001D08C
:10233000072A05DB03462946204600F0BDFA0EE1D8
:102340002078800601D5E76900E006272846652D3C
:1023500004D0662814D0672D69D12DE00020112FFC
:10236000009001DB112300E07B1C0CAA03A910A83C
:10237000FFF7F3FE1199002610987D1C0E9142E0A4
:1023800001203B460CAAC0070B900120009003A936
:1023900010A8FFF7E2FE119D129810990026002860
:1023A0000E9501D1781C0D18781B02D446427D1C75
:1023B000761EE81B00903AE0012F00DA012700208A
:1023C000112F009001DD112300E03B460CAA03A968
:1023D00010A8FFF7C2FE11993D46109800260E91F5
:1023E000217809070BD40E99A94200DA0D4603A9FA
:1023F000012D04DD4A19203AD27F302A06D0B84296
:1024000001DA011D04DA012100910FE06D1EEFE7F2
:10241000002802DC86192D1A03E0411CA94200DDC8
:102420000D46801B401C00900120C0070B902078B7
:10243000000705D40098A84202DB0020C0430090AA
:1024400069460020C8720B98012102AF0337C90703
:10245000884225D0022010902B2011900B98002844
:102460000BDA40420B902D20119006E00B9800F003
:1024700042F930317F1E0B9039701099481E0029A7
:102480001090F3DC0B980028F0D111987F1E387063
:102490002088000501D5452000E065207F1E3870AA
:1024A00001A8C01BC01D0B900F98002800D0012070
:1024B00041190098C01709180B980818A169081A43
:1024C000401EA0612078C00602D42046FFF78AF99A
:1024D0000F98002805D06268A1689047206A401CC8
:1024E00020622078C00625D52046FFF77BF921E041
:1024F000002E07DB0E98B04204DD03A86268805D01
:10250000A16802E06268A16830209047206A761CCA
:10251000401C20620098401E002800900AD100F064
:10252000C7F9C06862680168405CA1689047206A8A
:10253000401C206228466D1E0028D9DC07E0626836
:102540003878A1687F1C9047206A401C20620B9954
:10255000481E00290B90F2DC2046FFF759F90320B2
:1025600042E6000001FCFFFF104D0000E1DFFFFF2D
:1025700010B54369002B02D0C046C04601E0FFF70A
:102580006AF9012010BD1278014624310A70002238
:102590004A700122ECE711680022D243E8E710B547
:1025A0004369002B02D0C046C04601E0FFF7ECF9BA
:1025B000012010BD12880146243182840022C28489
:1025C0000122ECE711680022D243E8E74268002AC2
:1025D00008D001680B78491C002B03D0521E06C09E
:1025E000184670470121C160881E70474268002A62
:1025F0000BD0C3680168002B07D183688B4204D0DD
:10260000491E521C06C0002070470020C04370477E
:10261000F7B5154682B00027029C2078641C01970C
:10262000302802D0002D15D015E020780127641C39
:10263000782804D0582802D0002D09D00BE0002DB6
:1026400001D0102D07D1207800271025641C02E04E
:10265000082500E00A250026009610E000990127D1
:102660006943081829467143020C80B200908E1805
:102670003804864201D3012001902078641C294649
:1026800000F05EF90028E9DA0398002805D0002F51
:1026900001D0641E00E0029C04600198002806D06E
:1026A000FFF784F802210160C81E05B0F0BD009953
:1026B00030040843F9E770B516460C460546FFF7A7
:1026C000A5FC0368FF200230C05C012807D0FF2C66
:1026D0000ED8185D00280BD001202C7070BDFF3380
:1026E0003246214608331868C3182846984770BDFB
:1026F0000020C04370BD01468008081A0209101866
:10270000020A1018020C1018C00882001218520099
:10271000891A01E0401C0A390A29FBD27047C80215
:1027200012D54803400F002804D0C803C04301213C
:1027300088407047EFF3008000010009032109077A
:10274000084380F3008870470020704710B50020D0
:102750000249029A00F0C8FE10BD00000000F87F98
:10276000F0B53D4B02460C461C400020002C63D0C7
:102770003A4D8B4366D000296BDB0B0D1D05A94339
:1027800001252D0529430124FD33E34001D392188F
:102790004941FF3381339C468B02940D0121234331
:1027A00089074C42920200271B198C105D1A04D431
:1027B0002D1B02D42B466500491992185B41640811
:1027C000F4D15C1A08D40125ED07EE1755197441B0
:1027D00002D42A462346491C94185B4101229207E1
:1027E0001D46E61B8D4106D4B61A854103D42B46FF
:1027F000550034467F1924195B415208802AEFD1D5
:10280000234300D0022338460A22D04001D30122BC
:1028100013438A0510436246890A12058918002B62
:1028200009D00122D34002D30022401C5141002B89
:1028300001D140084000F0BD0B03134307D0C90F7E
:10284000C907F0BD0803104303D1002901DB10467E
:10285000F0BD00202946F0BD0000F07F0000F87FA9
:1028600010B5024800F040FE10BD00000000C07F1F
:102870007546FFF7C7FBAE46050069465346C008DC
:10288000C000854618B020B5FDF756FC60BC002797
:102890004908B6460026C0C5C0C5C0C5C0C5C0C52C
:1028A000C0C5C0C5C0C5403D49008D467047000049
:1028B000004870473C120020F8B51F46044601232B
:1028C0000068DB02032601461840072A05DB0028C2
:1028D00001D017A506E017A504E0002801D016A531
:1028E00000E016A5102081432160A069C01E002FC2
:1028F000A06101D0401EA0612046FEF773FF002FAB
:1029000009D038466268A1689047206A401C20625E
:10291000C01C206206E0206AFAE762682878A16895
:102920006D1C9047761EF8D22046FEF771FFF8BD69
:102930004E414E006E616E00494E4600696E660063
:102940003A2800D23038202302469A43412A01D344
:1029500010463738884201D30020C043704700003A
:10296000FFB58BB00878FF2806D0491C2D2805D06C
:1029700000230020009009E000200EE00123F8E78A
:10298000009A0A2462438018491C00900878FF28A6
:10299000F6D1002B02D0009840420090002503950C
:1029A0002C460D9800782D2801D02B2815D10D9993
:1029B000491C2D280D9102D0002003900DE001202C
:1029C000FBE7401C214600270A223B460D90284683
:1029D00000F0B9FD35183C464C410D980678FF2EA5
:1029E000EFD1002108460020C0460399002902D0FB
:1029F0008100401840080002860F012E01DD0026EC
:102A0000F6430E9900984718284620430BD0FF2024
:102A1000F530C7421ADA0398C1070B98002E4160BF
:102A20000ADD012009E00398C1070B9841600B996A
:102A3000002008600FB0F0BD00200B990860FEF781
:102A4000B5FE02210160182108461AE0FF20F5308A
:102A5000874219DD002E02DAFC48784401E0FC4888
:102A6000784406C80B9806C00B9803994068C907BC
:102A700008430B994860FEF799FE0221016014217A
:102A800008460020C046D5E7002108460020C04681
:102A900039000A9001D5724200E03246002900DA7E
:102AA000794207A800F0ECF907AB07CB04AB07C3EA
:102AB000E848009000200146214304D12C460546F9
:102AC000E44920390091210C0904014306D1290C65
:102AD00024040C4300992D0410390091210E09069D
:102AE000014306D1290E24020C4300992D02083916
:102AF0000091210F0907014306D1290F24010C433E
:102B000000992D01091F0091A10F8907014306D1EA
:102B1000A90FA4000C430099AD00891E0091E10F9C
:102B2000C907084304D100986D196441401E009004
:102B3000002F0295019406DD32466846012304A960
:102B400000F032FC05E001233246684604A900F09B
:102B500080FC044603980D46002802D00120C007DF
:102B60004440002108460020C0460A99BA4E484019
:102B70000007800F07D160004008284303D06000A1
:102B8000400DB04214D1FEF711FE02210160600039
:102B9000400DB0420CD1B148784406C80B9806C02D
:102BA0000B98E10FC907406808430B99486041E75B
:102BB0000B9844600B9805603CE7FFB51F4695B045
:102BC000002000250C909E685C68ED431390FFF791
:102BD0006FFEC0680168405C1490B96916986D1C5E
:102BE00088470A90396A88470028F6D10A98401C1D
:102BF0000AD00D20C0018443002E12DD0A982B2834
:102C000009D02D280DD103E00020C04319B0F0BD3C
:102C1000012080020443B96916986D1C8847761E0E
:102C20000A90600504A901D52D2000E02B206A46FA
:102C3000491C107410A8002E0D910B903BDD0A98D2
:102C4000692805D0492803D06E2801D04E281DD10F
:102C50003B46039002200296179A1699C0430095AE
:102C6000019413F02DFCC11CD0D10FE0B969169866
:102C70006D1C88470A900120761E40020443179875
:102C800005601398401C002E139014DD0A9830281C
:102C9000ECD0782801D058280DD1139801280AD1FA
:102CA0003B460296179A1699001F0095019413F05F
:102CB000FFFBC11CAAD114990A98884246D18020F2
:102CC000044308E00C981799401E0C900120400224
:102CD0000443681C0860B9696D1C1698761E884705
:102CE00030280A90EED031E01499884205D12006B0
:102CF00003D480200443761E1EE00A980CF09AF854
:102D0000002826D0012008A9400204430D98033171
:102D1000761E88420BD20A980D99303808700D98AB
:102D2000401C0D90200607D50C98401E03E020069D
:102D300002D40C98401C0C90A00502D51799681C71
:102D40000860B96916986D1C88470A90002ECBDC84
:102D500059E0002E57DD0A98652801D0452852D148
:102D6000A00550D50320B969000284436D1C169854
:102D7000761E8847002E0A900CDD2B2804D02D28C3
:102D800008D1FF2001300443B96916986D1C8847AB
:102D9000761E0A90E00501D52D2100E02B210B982D
:102DA00001700B98401C0B90009025E0012012A9A7
:102DB000400204430B980131761E88420ED20A98D5
:102DC0000B9930380006000E087003D100990B985B
:102DD00088420AD90B98401C0B9006E0E00501D50B
:102DE0001F4801E01E4840420C90B96916986D1CBE
:102DF00088470A9017980560002E04DD0A980CF0A9
:102E000019F80028D2D1F969169888470D99FF2042
:102E100004AA08700B99087000200E900F900C9B6C
:102E200010A90EA8FFF79CFDA00502D40120C04305
:102E3000ECE62420044215D0E0071FD138680F9A31
:102E40000E99031D3B60006806C017E08EB60100B6
:102E500080B601003E400000FF07000048B50100B9
:102E6000F1D8FFFF0EA968460BF06EFFE00705D111
:102E70003868009A011D3960006802602846C5E67E
:102E8000F7B516468AB0334878446C4603467C331F
:102E9000C06F5A689B680DC42E487844763003ACE6
:102EA0000DC80DC43720C001081837211B30FDF7AD
:102EB00065FC05460C46803D1B3C02D56442012062
:102EC00000E000200027099010E0E0070CD00C2063
:102ED00020497843794432464C39411868460123E9
:102EE00000F054FA6B4607C364107F1C002CECD131
:102EF000184F7F442E3F16E0E80712D02001C0197A
:102F00000EC80691089307920068F04201D1981903
:102F100008903246012306A903A800F037FA03AB54
:102F200007C36D10641C002DE6D10998002806D057
:102F300032466946012303A800F07EFA05E001232A
:102F40003246694603A800F021FA0A9B07C30DB078
:102F5000F0BD00009C410100034640000A4610B548
:102F6000400D0BD00121C9070F24A40200191C0336
:102F700064082143540D2143D20207E000210120BF
:102F8000F2E7D40F490021435200401E0029F8DA2D
:102F9000DB0FDB07184310BDFFB50D46144685B0A7
:102FA000486851680BF01CFE00910190A868A16868
:102FB0000BF016FE02910390A86861680BF010FEFA
:102FC000029A12188242029201D2012000E00020EF
:102FD000019A0B18D2180028019202D08A4202D915
:102FE00003E08A4201D2012000E000200099081885
:102FF00000906868A1680BF0F3FD029A12188242F3
:10300000029201D2012000E00020019A0B18D21890
:103010000028019202D08A4202D903E08A4201D2FA
:10302000012000E00020009908180090286821681D
:1030300040004900400849084018FA49471814E080
:1030400001994000C90F084300900198029940007F
:10305000C90F08430190029803994000C90F084323
:103060000290039840007F1E039000980028E7DA42
:103070000898002801D0EC4E00E00026B74201DAA3
:10308000012000E00020002804902AD0F71BF80659
:10309000C00E15D0029B2021091A039A8B401A43B7
:1030A0000392029A019BC2408B401A430292019AFA
:1030B000009BC2408B4000991A430192C14000918D
:1030C0007B110DD06F460320C11A03D50021820069
:1030D000B95003E08A008100BA587A50401EF3D5F7
:1030E000374603980299002800D001200143089830
:1030F0000291002808460CD0002800D00120019938
:10310000019A490508430121D20AC902D20201925B
:1031100000E001210E9B0122D207012B02D0002BDF
:1031200003D013E0002807D120E0904204D8904259
:103130000CD1019B0B4209D0019B5918019105D17B
:103140000099491C009101D17F1C009200280DD0EC
:10315000102108460020C0460498002806D00F9889
:10316000002803D0082108460020C04628682168AE
:10317000019B009A4840C10F0598C90739430EC00A
:1031800009B0F0BDFFB587B0099A0898089953684F
:1031900092684068896896460022039317469446D1
:1031A000089A12685300099A5B0812685200520884
:1031B0009A1A9E4BD4180A9A002A01D0352200E0B0
:1031C000402206920022012315460492DB07059354
:1031D00024E0002D05D175460346039E4D1BB341E7
:1031E00009D375466646039B491B049D9841059B80
:1031F0007519AC465F4163463B4308D0059B049E6E
:10320000DD0776082E435B080496059301E0521E05
:10321000641EC50FED0749184041521C069B9A4297
:10322000D7DB002D04D17546039A6B1A824101D277
:1032300003200CE0039A0B466B404240134303D03B
:10324000014303D0012002E0022000E0002061469B
:1032500001910021009702910A99002905D0614649
:1032600040020143704B019102E08007002302906D
:103270009C4201DA012000E0002007003AD01A1B2E
:10328000D006C00E15D0029D2021019C091AC54010
:103290008C402543029C8C4000D001242543019C96
:1032A0000295009DC4408D4000992C430194C1407B
:1032B000009154111DD06D460221002202290CD12B
:1032C0000320001B07E0002804DB8600AE59002E17
:1032D00000D00122401C0328F5DB081B02D5880022
:1032E0002A5004E08000285810438A00A850491E44
:1032F000E3D51C460A98002802980CD0002800D07C
:1033000001200199019A490508430121D20AC90205
:10331000D202019200E00121109B0122D207012B71
:1033200002D0002B03D013E0002807D11FE0904209
:1033300004D890420CD1019B0B4209D0019B591833
:10334000019105D10099491C009101D1641C0092A2
:1033500000280CD0102108460020C046002F06D0BF
:103360001198002803D0082108460020C04608987C
:103370000999019A009B006809684840C10F0798A5
:10338000C907214382600AC00BB0F0BD00B585B00B
:10339000019300920A460146002302A8FFF7FCFDB4
:1033A00002A807C805B000BDFFB50A461F4685B094
:1033B0000799019301230091014602A8FFF7ECFD54
:1033C00002990398049ECA0F4900D20700920F2267
:1033D000490892028C1A0021002800DB0C464500A7
:1033E00013486D08844214D3079A002A04DA441E55
:1033F0000026104DF64302E004460D460E4610210D
:1034000008460020C046002F03D0042108460020B3
:10341000C0462005E90A0843009908436905F20AF5
:103420001143ADE602C0FFFF013C0000FF3F00007A
:10343000FF070000FFFFFF7F00B585B001930092FA
:103440000A460146002302A8FFF79CFE02A807C80F
:10345000A8E7FFB50A461F4685B0079901930123E7
:103460000091014602A8FFF78DFE02990398049E81
:10347000CA0F4900D20700920F22490892028C1A03
:103480000021002800DB0C46450011486D088442ED
:1034900014D3079A002A04DA441E00260D4DF64381
:1034A00002E004460D460E46102108460020C046A4
:1034B000002F03D0042108460020C0462005E90A59
:1034C0000843009908436905F20A114358E60000D1
:1034D000FF070000FFFFFF7F10B50446C046C0464F
:1034E0002046FCF707FF10BD10B50C461107090F69
:1034F000092904D00A290AD008290CD104E0114670
:103500000820FFF70CF906E0510606D501E0510648
:1035100001D50120C007214610BDD10607D5010104
:103520000909CC084907000E0006044309E0410FD1
:1035300020024907000A0143200E00061D22D14146
:1035400001430846E7E74343514330B55C18010C9B
:10355000130C0D4692B25D4380B251432C190546BF
:1035600055430A0C09044D1962415843010C0004EB
:103570004019514130BD000001491820ABBEFEE7A3
:1035800026000200FFB51F4689B013981299400526
:10359000C00FC00705900020079005460446461E50
:1035A000049002903C20491C12910690B9690A9837
:1035B000884703901498401E14901498002841DD09
:1035C00003982E2816D01021FFF7BAF9002834DB13
:1035D00001210491079901431AD0069900290CDBB7
:1035E000069AC11700F007FA054306980C43001F1E
:1035F000069006E0012002900EE0002801D0012094
:103600000543012007900298002805D1361D03E0EC
:103610000298002800D0361F1298401C1290B969F9
:103620000A98884703901498401E14900498002824
:10363000C3D00B9912980860BFE70398702808D090
:10364000502806D0F9690A9888470498002815D0B0
:1036500051E00020039001200290049800280AD035
:103660001298401C1290B9690A9888471499491E0B
:103670000029149106DCF9690A9888470120C043A3
:103680000DB0F0BD2B2804D02D280DD10020C04353
:1036900002901298401C1290B9690A9888471499B0
:1036A000491E00291491E6DD411CE4D00A21FFF7F0
:1036B00047F90028DFDB03990A22514308180390D9
:1036C0001298401C1290B9690A9888470A21FFF79E
:1036D00037F914990B9A491E149112991160149993
:1036E000002901DD0028E6DAF9690A98884702997D
:1036F00003984843861913982421084004902846CB
:10370000204304D0A10F8907090002D006E00598E4
:103710009BE0A90FA4000C43AD00B61EE10FC90742
:10372000080002D16D196441761E0498002803D068
:103730000B2002905D4803E0282002907D20C043CA
:103740008642039007DA811B0298081841280290EC
:1037500001DD41200290029A01200021521E00F05A
:103760004AF9024628400B462140084301D0012077
:1037700000E0002007900020521EC04343412A4031
:1037800023401A4301D0012000E000200799069051
:10379000014352D0002108460020C0460321059A6B
:1037A00089050840002A05D082008018C20F101831
:1037B000401008408015012802DD0020C04301E0D0
:1037C000012815D0401C38D00798002835D006981D
:1037D00000280DD1029A0120002100F00CF92840A8
:1037E0002140084301D0012000E00020002824D01F
:1037F000029A0120002100F0FEF8034640198C4691
:1038000061412A1A8C410FD30298402807DD0498A1
:10381000039E002801D0343E02E0173E00E0761CF3
:1038200001240025E40708E05B1E62460024E4430F
:103830006241DD43D44305400C4003980121081A3E
:10384000B04206DA1A49059808430190002000901A
:103850000EE060006205010BE80A1043059A009033
:1038600068460A4313490A43314601920BF0D8FADD
:10387000049800280AD01398C00714D13868019A18
:103880000099031D3B60006806C00CE002A8694671
:103890000BF05AFA1398C00705D13868029A011D37
:1038A0003960006802601298EAE6000002FCFFFF3F
:1038B0000000F07F0000F03FFFB51D4687B0119873
:1038C000484A109C129E40051399C00F761EC007EF
:1038D0000243019200220092FF22D20510432022CF
:1038E00091434929059003D017464E2928D04FE02F
:1038F0003DA002AA0BC801270BC2A9690898641C45
:103900008847761E014607D402A8C05D002803D070
:103910002022914381420AD0E96908988847032F01
:1039200036D0082F34D00120C0430BB0F0BD7F1C2F
:10393000032F01D0082FE0D10999601C0860DCE753
:10394000A9690898641C8847761E2DD4B84341287D
:103950002AD1A9690898641C8847761E24D4B843E4
:103960004E2821D1A9690898641C88470199012231
:10397000D204114301910599D2001143059109998F
:10398000761E0C6001D4282806D0E969089888477B
:103990001198C00712D023E0A9690898641C8847D1
:1039A000761E01D4002803DAE96908988847BAE747
:1039B0002928F1D10998641C0460E9E711982421B1
:1039C000084207D02868019A0099031D2B600068FF
:1039D00006C005E028680599021D2A60006801609C
:1039E0002046A2E70000F07F494E46494E4954590F
:1039F00000000000704710B5202A04DB0146203A81
:103A00009140002010BD914020239C1A0346E340C2
:103A10001943904010BD70B58C180578401C6B0799
:103A20005B0F01D10378401C2A1106D10278401C9B
:103A300003E00678401C0E70491C5B1EF9D12B0771
:103A400005D40023521E0DD40B70491CFAE70378ED
:103A5000401CCB1A921C03E01D780D70491C5B1CA6
:103A6000521EF9D5A142D8D3002070BD10B582B046
:103A70000024019441784A0301928178002901D001
:103A8000002101E001210903114301910078002880
:103A900001D00120C0020843019040200121009084
:103AA000982301AA084606F096FB002808D030208B
:103AB00001210090982301AA0194084606F08BFB8F
:103AC00002B010BD00B583B00C49FDF72FFD0C4AC4
:103AD0000C4990420EDC88420ED2FDF7FDFD0190AC
:103AE000302001210090982301AA084606F073FBBC
:103AF00003B000BD0248F0E70020EEE700002038E8
:103B000000FF7F47000080808030C16070478022C6
:103B10000029016801D0114300E091430160704722
:103B200010B50020012212060123014607F0BAFA5F
:103B300010BD000010B504210348FFF7E5FF03495D
:103B40000120087010BD000000000140B8000020F6
:103B500080308068084000D001207047F1B5002017
:103B600082B0214D064600900024204F2C70234641
:103B700001220321384600F0CFF900231A46022122
:103B8000384600F0BAF90121384600F0DBF9287810
:103B900000280DD1FF2791370120641C0DF0E6FAB3
:103BA000BC4202D1002003B0F0BD28780028F3D039
:103BB0000E48006B761C01050098090D081800904E
:103BC000052ED1DB3146FCF7CBFDFDF7C9FDFDF736
:103BD00083FC074A074BFDF72BFBFCF7B9FE029964
:103BE0000860012003B0F0BDB800002000000140D3
:103BF0006666666666664A3FF0B50446002087B092
:103C0000049003900290064601900025994F2B46A0
:103C10003D7004220321984800F07EF900231A46E3
:103C20001946954800F069F901220023114692488F
:103C300000F063F90222002311468F4800F05DF97D
:103C40000322002311468C4800F057F901218A48CD
:103C500000F078F9387800280ED1FF27913701203D
:103C60006D1C0DF083FABD4202D1002007B0F0BDFB
:103C7000804800780028F2D07F480499026B120532
:103C8000120D891804910399426B1205120D8918BF
:103C900003910299826B1205120D89180291019904
:103CA000C06B761C0005000D08180190052EACDBDA
:103CB00031460498FCF754FD054631460398FCF75D
:103CC0004FFD039031460298FCF74AFD02903146C1
:103CD0000198FCF745FD01902846FDF741FDFDF7F1
:103CE000FBFB664F664D3A462B46FDF7A1FAFCF703
:103CF0002FFE644912F0D4FA20600398FDF730FDDE
:103D0000FDF7EAFB3A462B46FDF792FAFCF720FE58
:103D10000090FDF7E1FB3A465B4BFCF7EBFF0546F5
:103D20000E465A49009812F0BBFAFDF7D5FB2A4619
:103D30003346FCF7F7FFFCF70BFE5449FDF7F6FBA3
:103D4000FDF7CAFB0DF074FB0022514BFCF7EAFFB4
:103D5000504A514BFCF7B6FF02460B4600204F4934
:103D6000FCF7E0FFFCF7F4FDFDF7B6FB3A464C4BE1
:103D7000FCF7B5FFFCF7ECFD3F21090612F0F6F960
:103D8000484E494DB04201D8A84251DDB04201D958
:103D9000022000E0012020750020E0600298FDF77D
:103DA000DFFCFDF799FB354A354BFDF741FAFCF78F
:103DB000CFFD3E4912F074FA3D49FDF7B7FB3D498E
:103DC000FDF7B4FB3C49FDF7B1FB0746A0603B4B58
:103DD0003B4A39460A2007F0D5F80146384612F02A
:103DE0005FFA60600198FDF7BBFCFDF775FB234AA5
:103DF000234BFDF71DFAFCF7ABFD3249324F8842E9
:103E00001DDAFDF769FB3A46304BFCF773FFFCF710
:103E10009FFD264912F044FA0221C943FDF7A4FC94
:103E2000F9074840B04206D90120607500201DE026
:103E300000212175B1E700216175206117E0FDF7D0
:103E40004BFB3A46214BFCF74AFFFCF781FD174933
:103E500012F026FA0221C943FDF786FCA84203DDD1
:103E600002206075256102E000216175206101205A
:103E700007B0F0BDB800002000000140666666662D
:103E800066664A3F0000404066660A4000002041E6
:103E900000F4AA4083DBB5DCE1796B3F0000F03F22
:103EA00066127140000020C20000FA4200007A440D
:103EB00000004842000048430AD7A33B10030020FB
:103EC000E80200209A99193F333333333333E33F09
:103ED00010B504210348FFF73BFE012801D1FFF78D
:103EE00029FE10BD000001408030002A026801D088
:103EF0000A4300E08A4302607047930830B49B0095
:103F00001B1858689207D40E1F22A2409043A1406C
:103F10000843586030BC70475B1E12021B04FF3A16
:103F2000013A13430B430168802211400B430360A5
:103F30007047CA06D20E02674909490141677047B6
:103F4000016270470029416F02D00122114301E054
:103F50004908490041677047F3B5C1B004A80BF0A8
:103F60003BFA002836D100904199019002900390CD
:103F700008786C46207001204D780723C217920FF5
:103F8000121892089200821A92008710D2198E7825
:103F900012191570421CD717BF0FBF18BF08BF00FA
:103FA000D21B9700421C9210CD78BA181219801CAF
:103FB000891C5B1E1B0616701B0EDFD14198214623
:103FC000C07BE0734298002804A807D00BF0E2F809
:103FD000002807D00020C04343B0F0BD0AF056FFD0
:103FE0000028F7D1419900200823491EC217920FDB
:103FF000121892089200821A920085105219121912
:1040000012784A70421CD517AD0FAD18AD08AD003F
:10401000521B9500421C9210AA18121912788A702D
:10402000801C891C5B1E1B061B0EDFD1002043B0C9
:10403000F0BD000010B40022072801D90122083881
:104040009300064A9B181A6880000F248440A243FC
:1040500081401143196010BC7047000000200240ED
:10406000F0B5374BC000C61893B048080E90100149
:104070000C908808069010020B90C8080590100359
:104080000990080904901004089048090A90100546
:1040900007908809864610060390C80900258446C3
:1040A000100702900020FF24AC4003460C4240D091
:1040B0000124AC40214201D00F2013460E9F27421D
:1040C00003D0F02738430C9F3B43069F274204D080
:1040D0000F273F0238430B9F3B43059F274204D0E5
:1040E0000F273F033843099F3B43049F274204D0D7
:1040F0000F273F043843089F3B430A9F274204D0C1
:104100000F273F053843079F3B437746274204D09C
:104110000F273F063843039F3B436746274204D09F
:104120000F2424072043029C2343346884431C4308
:1041300034600835361D092DB4DB13B0F0BD000026
:104140002020024070B5002601246403324601237A
:104150001146204600F046F90F4D284600F064F95C
:104160006E60E620286028460C4A0D4D0021535C05
:10417000037353185B780373891CA942F7DB8568C6
:1041800000F052F92046324620430023114600F049
:1041900029F9284670BD000000A008408C020020CC
:1041A0006407000070B5094D00242878072806D060
:1041B000082807D0092807D00A2805D070BD00F0CC
:1041C0003BFF01E000F0EAFE2C7070BD070100200B
:1041D000F8B502F02FFA050050D0524C7F26207817
:1041E00000275149F605002809D0012847D00228A8
:1041F0004ED0032842D16078002843D18AE0A068DD
:10420000B04207D1286E12F04BF8FDF73FFA60700C
:10421000012055E0FDF760F9444A454BFCF752FD9B
:10422000FCF796FBA060B04201DDA66003E0FF2131
:10423000C905C84271D26E6D286D314612F0C0F8C2
:1042400005466660A068FDF747F93A4A3A4B0FF019
:10425000ADFB06460F462846FDF73EF932463B4683
:10426000FCF7E6FF05460E466068FDF735F92A467D
:104270003346FCF727FDFCF76BFB6060F8BD607808
:10428000002802D0401E6070F8BD02202070F8BDEA
:10429000A0684200120E0CD0FDF71EF9234A244BF1
:1042A000FCF71DFDFCF754FBA060B0420ADDA660E0
:1042B0000CE0686E11F0F4FFFDF7E8F96070032080
:1042C0002070F8BDFF21C905C84228D26F6D286D46
:1042D000394612F075F806466760A068FDF7FCF8ED
:1042E000144A154B0FF062FB05460F463046FDF7AA
:1042F000F3F82A463B46FCF79BFF05460E466068EE
:10430000FDF7EAF82A463346FCF7DCFCFCF720FB15
:104310006060F8BD2770F8BDFFE7A7608BE7A76076
:10432000D4E7000054020020000048427B14AE474E
:10433000E17A943F9A99999999990340F0B4420986
:10434000254B92000021D2182E2800D10221C00650
:104350001368C00E032282401340C3405B181F49FC
:10436000486B44070868640FC869C50F4868002691
:104370008005C00F1A4A002803D01046002D0ED128
:1043800001E030460BE08869C00D0007000F00D146
:1043900010208D69124F6D02AD0F7843E840082C54
:1043A00010D225007D442D796D19AF440B0C030309
:1043B0000B0B0508104606E00120C00303E07D203A
:1043C000000200E03046096A052901D3400900E0F7
:1043D000C840F0BCD8407047388008400080084092
:1043E00000127A00F0B4084F7D6AFE6A3C6B854388
:1043F0008E439443002B02D005430E4314437D6249
:10440000FE623C63F0BC70470080084010B4054B6E
:104410009A6A07248440A24381400A439A6210BCEE
:10442000704700000080084010B500218020012363
:104430000A4606F037FE10BD10B5034800F006F836
:104440000149486710BD0000800A0020F8B5044605
:104450000026012040033246074601231146FFF79C
:10446000C1FF0E4D2846FFF7DFFF6E60E620286093
:104470000020215C2973211849782973801C702839
:10448000F7DB2846AC68FFF7CFFF32460023114622
:104490003846FFF7A7FF2046F8BD000000A00840FF
:1044A00038B51C4801691CA009F08AFE6946022043
:1044B00000F062F80106090E01D025480DE02548FC
:1044C000009909F07DFE244809F084FC022007F0E1
:1044D0004BF80106090E03D0204809F071FE0BE0ED
:1044E000772109011E4804F03BFF002801D01D4838
:1044F00000E01D4809F06EFC1C4800241C4A0470B2
:104500000121117044700AF0FDF900F0DFFA19483A
:10451000047038BD700200202573E7B3BBE7BB9F72
:10452000E6ADA3E59CA8E9AA8CE8AF81E69687E40E
:10453000BBB6E5AE8CE695B4E680A72CE8AFB7E74E
:10454000AD89E5BE852E2E2E2E20202000000000F5
:104550000476010050740100F8730100B475010085
:10456000102C00009C740100F87601001B00002054
:10457000F6000020F8000020F3B500248FB077216A
:10458000069408940B9102281FD0002800D008013F
:104590000D90012040030123224609900899FFF75E
:1045A00021FF384D2846FFF73FFF6C60E62028606A
:1045B00000273C4602AE102202A80D9904F02EFFFF
:1045C000002805D0012011B0F0BD2F480D90E0E784
:1045D000002102A8FFF7C0FC002802D0022011B081
:1045E000F0BD2A483901411A102947DC002947DB70
:1045F0000FDDCA07D20F02D06846007A28738A42BC
:1046000007DAB35C2B73B3185B782B73921C8A4266
:10461000F7DB102908DA6846042C05DA725C0255CB
:10462000491C641C1029F7DB0D987F1C10300D907D
:104630000B988742BFDB69460878AE68020248786B
:10464000897810430002014308026946CC7804438C
:104650002846FFF7E9FE0121099849030843002392
:10466000069A0899FFF7BEFEB44202D0032011B0AB
:10467000F0BD10980660002011B0F0BD1021B8E721
:104680000021C8E700A00840102C000064070000CB
:10469000020011D00020115C41290FD02D290DD02E
:1046A0000B46573B032B09D93139082906D9115C30
:1046B000002900D1481E704700207047401C202868
:1046C000E9DB7047F0B5B7B00746014670221AA87B
:1046D00004F0A4FE002846D1052227A134A8FBF748
:1046E000B3FE00283FD1264D002658207043C11943
:1046F00058226846703104F091FE002833D116909C
:1047000017900120400300226C46012311461890A7
:10471000FFF768FE2846FFF787FE00206860E62066
:10472000286000212846625C027362185278027386
:10473000891C5829F7DB8468FFF776FE0023179A57
:1047400016991898FFF74EFEB1001AA80918896942
:10475000A14208D169460978002900D001218019B9
:104760004078884202D0002037B0F0BD761C142E6D
:10477000BBDB012037B0F0BD4444333500000000FE
:1047800000A00840002811D070B505460024285D1F
:10479000002803D001F070FF002805D0641C1F2CF6
:1047A000F5DB0020C04370BD204670BD704700009F
:1047B000F8B51C4D002410A22046296809F0F8FB2A
:1047C0000020194EFF2730702D370A200CF0CEFC48
:1047D000641CBC4206D115A20320296809F0E8FB3D
:1047E00008F0F2F930780028EFD01BA200202968E9
:1047F00009F0DEFBF8BD0000436865636B696E6716
:104800002053797374656D206865617274626561A7
:10481000742074696D65722073746174752E2E2E08
:10482000000000000C000020000000205379737489
:10483000656D2034487A20686561727462656174C0
:104840002074696D657220646964206E6F742073D2
:10485000746172742E00000053797374656D206862
:1048600065617274626561742074696D6572206936
:104870007320776F726B696E672E0000002100282D
:1048800006D00278002A09D0425C303A0A2A01D3C5
:1048900001207047491C425C002AF5D10020704776
:1048A000F3B583B00D0044D00398002841DD002407
:1048B000401E0190844201DA601C01E00398401E12
:1048C0000146002C01DD601E00E000200746880044
:1048D00000902958A600A85911F08EFC02D1019829
:1048E000844223DBBF00A959E85911F085FC01D1AE
:1048F000002C1BDCA959E85911F02AFD05D20098BB
:104900002958A85911F0A2FC10D3A959E85911F05F
:104910009DFC05D200982958A85911F019FD05D31E
:104920000398641C844201DA0198C3E70398844227
:1049300002DA002005B0F0BD012005B0F0BD000096
:10494000F1B5009800282CD0FBF75CFD164D06460B
:104950000024A700E859FBF755FDB0421ED1E859E5
:104960000099FBF7ADFE002818D1072C16D22000C5
:104970007844007900188744030507090B0D0F00E0
:104980000020F8BD0120F8BD0220F8BD0320F8BDCD
:104990000420F8BD0520F8BD0620F8BD641C072CD6
:1049A000D7DB0720F8BD000028010020F1B50098F2
:1049B000002819D0FBF726FD0F4D06460024A7005E
:1049C000E859FBF71FFDB0420BD1E8590099FBF7FE
:1049D00077FE002805D1002C08D0012C08D0022C2D
:1049E00008D0641C032CEADB0320F8BD0020F8BDCE
:1049F0000120F8BD0220F8BD60010020002821D070
:104A000070B50546FBF7FEFC0F4E04463068FBF719
:104A1000F9FCA04205D129463068FBF751FE002879
:104A20000CD07068FBF7EEFCA04205D129467068F7
:104A3000FBF746FE002803D0002070BD012070BDAA
:104A4000022070BD7047000020010020002801D125
:104A50000220704710B50446052208A1FBF7BBFCF5
:104A6000002807D0062207A12046FBF7B4FC002847
:104A700001D0022010BD012010BD000054727565E8
:104A80000000000046616C7365000000F0B4002374
:104A90004C1E002C13DD0126421ECD07F607F54201
:104AA00001D05378521C56780025641006D09778B0
:104AB0009B19D678ED19921C641EF8D15B19491E1A
:104AC00001D4405CC318F0BCD8B270470C4B002234
:104AD0009A5E0020002A0DDD0A49D20701D04870F5
:104AE000491C00229A5E521004D048708870891CBC
:104AF000521EFAD104490880044918800870704792
:104B00000C010020B70E00200E010020070100203C
:104B1000F0B56B4C9BB061792079814206D0607111
:104B200000287DD106F0B8F9FFF7D0FF654800787E
:104B3000052875D12079002809D00020199006F0A9
:104B4000A9F8A078012826D000280BD023E000F097
:104B5000C7FA5DA009F03EF914225C4904A808F0E8
:104B60004BFBEBE7A0680326002813D0FBF74AFCB9
:104B700000280FD05548FBF745FC0546A068FBF719
:104B800041FCA84206D180225048A168FBF75CFC9A
:104B900000282AD0A6704A480079002865D11998C3
:104BA000002870DD00240498FBF72CFC484D0126FA
:104BB00000902420604347197868FBF723FC009994
:104BC0000246914205D104997868FBF73DFC002824
:104BD00003D0641C761C1B2EEBDD1B2C59DA002045
:104BE000242254430146621905E00220A070D2E756
:104BF000401C042802DA135C032BF9D1002853DD92
:104C00000123012808DB2E4CE478555CA54203D033
:104C1000491C5B1C8342F8DD814228DA202000E039
:104C200023E0805C012802D1264800210170244C39
:104C3000107E20716071274804ABC11A002901DD84
:104C4000142905DB502219462248FBF78EFC0AE0A6
:104C500000218A009D588550D51812186D68891C4E
:104C600055601429F5DB1998E0601BB0F0BD1AA05F
:104C700009F0B0F824A009F0ADF8049809F0AAF8FA
:104C800022A009F0A7F8FFF721FF06F005F91BB0F5
:104C9000F0BD22A009F09EF81BA009F09BF8049833
:104CA00009F098F82248ECE78142B5DA044BDB784A
:104CB000545C9C42B0D0491C8142F9DBACE7000057
:104CC000F4000020070100200D0A0000B80E0020AB
:104CD000446A0100680B00200D0A0D0A1B5B34308A
:104CE0003B33316DE5AFB9E4B88DE8B5B7EFBC8CB7
:104CF000E682A8E6B2A1E69C89E69D83E99990E464
:104D0000BDBFE794A80000002200000022E591BD8D
:104D1000E4BBA4E380821B5B306D00000D0A0D0A2A
:104D20001B5B34303B33316DE591BDE4BBA4200007
:104D3000FC8E0100F0B50C469DB001460DA8202266
:104D40000230FBF787FC544908A80A7802714A78B8
:104D5000684602700A7B08A8427208690B9001221B
:104D60004869D205904200DA00204C4A48619042DE
:104D700000DD104648610C90494808A98278CA7144
:104D800002784A714078887116A8FEF735FF4549C8
:104D90000025002825D01798069018A8027B002A25
:104DA00027D0084604901698059018A8407B002844
:104DB00021D00B46079308AB58751A7501273A4E58
:104DC000002C08A83BD00772A0680290E06803900E
:104DD00060680190F16D606811F0BAFA0DD201209F
:104DE0000CE006910491059108A807914575057599
:104DF000E4E71998D6E71A9BDCE7002008A9887039
:104E0000B16D606811F022FA01D2012000E00020AB
:104E100008A94870716D606811F018FA01D201207C
:104E200000E0002008A90870316EA06811F090FA27
:104E300001D8012000E0002008A9C87004E0057234
:104E400003910291089501918421042002F0D0FB86
:104E50001648174C0570217816480F5468460BF019
:104E6000BFF921786B4689000919886120780028EC
:104E70000ADB132808DC58214843F52109014118B1
:104E80005822184604F030FB20781421401CFBF710
:104E900067FC21701DB0F0BD681100200000C84201
:104EA000180200200000C07F8C090020150000209F
:104EB000F0090020F109002010B5374C20780028B7
:104EC00016D01C2863D201007944097949188F440F
:104ED0005E1F0D101613191C2225282B2E31343776
:104EE0003A3D404346494C4F5255585B03F0C4FF8E
:104EF00010BD04F0E9F810BD0BF05CFA10BD10F025
:104F000081FD10BD0BF03EFF10BD10F0A7FF10BDDE
:104F100001F094FD10BD00F0DDF910BD10F0CAF8ED
:104F200010BD06F059FB10BD02F010FC10BD0CF0D6
:104F300037FD10BD0CF0D4FC10BD0FF09BFB10BD75
:104F40000FF05EFA10BD0CF05FFC10BD04F05EFBCC
:104F500010BD0DF0B1FA10BD0DF090FD10BD0FF0B9
:104F60009FFF10BD0EF0F8FB10BD0AF07BFF10BDD7
:104F700010F0EAF910BD0DF0E1FE10BD0AF07CFB67
:104F800010BD0BF067FF10BD0DF0FCFF10BDFFF76B
:104F90009DFD0020207010BDF8000020F8B5204CC9
:104FA0000120205600251F4E1F4F00281DD01BDD5D
:104FB000401E60701D4810F017FF01467F2008F06A
:104FC000B9FE3580FFF782FD012020561849C00147
:104FD000411880221548FBF73DFB1448FBF712FAF5
:104FE0003880124808F0F6FEF8BD0020C04360701B
:104FF0000E4810F0F9FE01467F2008F09BFE358038
:10500000FFF764FD80220B490848FBF723FB0748A4
:10501000FBF7F8F93880054808F0DCFEF8BD000021
:10502000040100200E0100200C010020B80E002019
:10503000B80B0020380E0020F8B5234C0120205674
:105040000025411C214E224F002920D02178491EE5
:1050500088421BDA401C60701E4810F0C5FE0146F5
:105060007F2008F067FE3580FFF730FD01202056D5
:105070001949C001411880221648FBF7EBFA154880
:10508000FBF7C0F93880134808F0A4FEF8BD65703E
:10509000802210491148FBF7DDFA0E4810F0A4FEFB
:1050A00001467F2008F046FE3580FFF70FFD802285
:1050B00009490848FBF7CEFA0648FBF7A3F9388000
:1050C000044808F087FEF8BD040100200E0100200E
:1050D0000C010020B80E0020B80B0020380E002074
:1050E00070B50D4D0424E00140190146803980223D
:1050F000FBF7FAF9641E002CF5DC8022074906480C
:10510000FBF7F2F906490878052801D2401C08701F
:105110000020C043487070BDB80B0020B80E0020BE
:1051200004010020F0B595B0062210210020FEF702
:1051300097FF062220210020FEF792FF0022202167
:10514000454801F0FBF9E126760200246846049602
:105150004483FF21048301318182404FC48204A92A
:10516000384608F0D9FE01224021384608F002FFF7
:1051700001228021384608F0FDFE00221146384603
:1051800008F000FF00220121384608F0FBFE192339
:105190000294DB01684603948622C38102810125C3
:1051A00085722F49C47201910321090281816946E8
:1051B0000220009704F078FF0121022004F08AFF0A
:1051C00000F0E6FA01220021384608F0E6FE01224E
:1051D0001146384608F0E1FE22484470857002F01E
:1051E000EBFC214808F0F6FD0123002219461F4878
:1051F000009608F0E5FF1E4E302234701D4908A8C5
:10520000FBF772F9002108A8FEF7A6FE00210CA802
:10521000FEF7A2FE002110A8FEF79EFE08A808F0E7
:10522000D9FD089409940A940B940C940D940E944F
:105230000F94109411941294139435700E4808F042
:10524000C9FD0E4808F0C6FD0D4808F0C3FD09F081
:1052500059FB15B0F0BD000000000B4000000440F9
:105260003F0F002006010020489401000494010033
:1052700014000020106E010090940100C093010002
:105280007C93010010B584B00D4808F0A3FD0D4CCF
:105290000D48A16C08F094FF05F0FEFDA06C009095
:1052A000002069464881FF22088101328A80C88037
:1052B000064808F031FE06490120086004B010BD20
:1052C000EC9401008C020020409501000000044095
:1052D0003C000020F0B58FB00022072164A002F04E
:1052E00019FE2F25002700286A467BD0072161A0E0
:1052F00002F010FE002207215DA002F00BFE044622
:10530000684600780028204604D0FBF77BF822216D
:105310000D1A02E0FBF776F82D1A2046FBF772F81B
:1053200001465548042906D2222354A2214600688A
:1053300008F046FF95E0002D06DA222350A2214610
:10534000006808F03DFF8CE00297039704970597EB
:1053500006970797089709970A970B970C9768463F
:105360000D97007800280AD02F2246A102A8FBF74B
:1053700071F92222214602A8FBF707F804E02F2248
:10538000214602A8FBF766F942480121077002A8EE
:10539000FEF7E2FD012106A8FEF7DEFD01210AA8C5
:1053A000FEF7DAFD68460078002801D03AA100E057
:1053B0003DA142A008F004FF2046FBF723F8014678
:1053C00049A008F0FDFE534808F004FD524808F0DB
:1053D00001FD52A008F0FEFC684600782146002836
:1053E00003D000E02DE059A000E066A008F0E8FE40
:1053F000002568462C4602AE017A02E0315D2F2C72
:1054000001DA6AA000E06BA008F0DAFE072D13D0E5
:105410006D1C641C302CF1DB0297039704970597F1
:105420000697079708971B4809970A970B970C97B9
:1054300001210D97017014E060A008F0CBFC00255D
:10544000E7E707210BA002F065FD5D4808F0C2FC0C
:1054500068460078002800D00D20291A594808F025
:10546000AFFEFFF733FB584807700FB0F0BD0000E8
:10547000303100003233000090010020E79FAD0082
:10548000E995BF00436F7079726967687420746F23
:105490002000000014000020E78988E69D83E4BF17
:1054A000A1E681AF00000000E99D9EE78988E69DA6
:1054B00083E6BA90E69687E69CAC00000D0A5B5442
:1054C00065787432456E635DE7949FE68890E6A840
:1054D000A1E5BC8F203A203438E5AD97E88A8225D3
:1054E00073E6A8A1E5BC8F000D0A5B5465787432A1
:1054F000456E635DE8BE93E585A5E69687E69CACC0
:10550000E995BFE5BAA6203A202564E5AD97E88A7B
:1055100082000000889D0100F49D01000D0A5B548B
:1055200065787432456E635DE5868DE9878DE69614
:10553000B0E7BC96E8AF91E59BBAE4BBB6E58DB3A6
:10554000E58FAFE380820D0A000000000D0A2F2ACC
:1055500020414553323536E58AA0E5AF86E79A8487
:10556000E78988E69D83E4BFA1E681AF2027436FEA
:105570007079726967687420746F20257327202AF8
:105580002F0D0A000D0A2F2A20414553323536E5EA
:105590008AA0E5AF86E79A84E69687E69CAC20274A
:1055A000257327202A2F0D0A0000000030782530AF
:1055B00032582C0030782530325800000D0A000097
:1055C0009C9C0100449D0100F800002070B5134D23
:1055D0002878032821D1124C124922790020242353
:1055E00043435B181B7E934207D12422504340184B
:1055F000C069002804D0804702E0401C1B28EEDB75
:1056000000262E70FFF762FA07A008F0E3FB20796E
:10561000002801D105F040FC267170BD0701002073
:10562000F4000020446A01000D0A5E4300000000FF
:1056300070B5414C6078002801D0401E4DE000F06C
:10564000F9FF05002CD022783C49A8182030037CB3
:10565000372B50D00CDC2D3B0A2B19D21800784484
:10566000007900188744641414143B3D3F414345BE
:10567000572B0FD006DC382B3FD0392B3FD0412B96
:1056800006D13EE0582B0CD0592B14D05A2B1CD0ED
:1056900000204BE0521C2270686FFCF71DF8607010
:1056A00070BD521C22700121686FFCF75DF8FCF799
:1056B00013F8607070BD521C22700221686FFCF7F5
:1056C00053F8FCF709F8607070BD521C227003217A
:1056D000686FFCF749F8FBF7FFFF607070BD184872
:1056E00010E018480EE018480CE018480AE0184886
:1056F00008E0184806E0184804E0184802E0184896
:1057000000E008460122174B9A70FBF70FFFFBF7EA
:10571000E3FE154A154B0EF049F9FBF719F9296D0F
:1057200010F0BEFD124908602078401C207070BD4A
:1057300000200246E7E700006C0200200000C8429B
:10574000000020410000A0410000F0410000204284
:10575000000048420000704200008C420000A0425D
:105760000000B442681100209A99999999990340D0
:105770005802002010B5054C2078022805D1FFF70B
:10578000A5F905F089FB0020207010BD070100205D
:1057900010B501220921032004F0C4FC0120C00738
:1057A000034908600021034841608160017010BD19
:1057B00000E100E0100100200B4802780B48002AAD
:1057C000016D0B480AD100290AD04168002906DD85
:1057D0000278002A03D000220270491E41607047FF
:1057E0000021C943FAE70000F70000208C020020E6
:1057F000EC00002010B5064C0021204607F0CDFD3E
:10580000A115204607F0C4FD02490120887010BD93
:1058100000F006406811002070B50C4E00242146AF
:10582000304607F0BAFDB5152946304607F0B0FD01
:10583000074928010860BFF34F8FBFF36F8F2146E0
:1058400000232A460846FEF7CDFD70BD00E0064065
:1058500080E100E0F8B506460B480C4601691D469C
:105860000AA008F0ADFC002D09D03046FBF734FE4D
:1058700002460B4607A0009408F0A2FCF8BD07A062
:1058800008F0A8FAF8BD0000C401002025732573B4
:10589000203A2000252E326625730000E695B0E6FA
:1058A0008DAEE4B88DE58FAFE794A80070B50D46D6
:1058B0000446012813D0022C15D0032C15D0002C3F
:1058C00017D0002D01D0032C13D00B4808F082FA1A
:1058D000FFF7FCF8094900200870012070BD08A0FE
:1058E00008F078FAF1E70FA000E018A008F072FACB
:1058F000E7E7002070BD000068770100F800002095
:105900000A0AE99499E8AFAF3AE9858DE7BDAEE5BB
:10591000AD98E582A8E599A8E7A6BBE7BABFE38002
:10592000820000000A0AE99499E8AFAF3AE586855B
:10593000E983A8E58AA0E8A7A3E5AF86E6A8A1E5E4
:105940009D97E5BC82E5B8B8000000000A0AE9941A
:1059500099E8AFAF3AE9858DE7BDAEE69687E4BB3F
:10596000B6E5B7B2E68D9FE59D8FE68896E8A2ABD7
:10597000E7AFA1E694B9000070B508A008F02AFAD4
:10598000104D114E0024A0002A5831580FA008F0E5
:1059900017FC641C072CF6DB70BD00000D0AE69CAA
:1059A00089E69588E79A84E68CA1E4BD8DE6A8A1F6
:1059B000E5BC8FE58F82E695B0E5A682E4B88B3A28
:1059C0000000000044010020280100200D0A25737A
:1059D000203A20E6898BE794B5E7AD92E79A84E414
:1059E000B8BB4C4544E5B0862573000070B508A0EF
:1059F00008F0F0F90F4D104E0024A0002A5831583D
:105A00000EA008F0DDFB641C032CF6DB70BD00006B
:105A10000D0AE69C89E69588E79A84E68CA1E4BDA8
:105A20008DE7BB84E58F82E695B0E5A682E4B88B6E
:105A30003A0000006C010020600100200D0A25736F
:105A4000203A20257300000070B507A008F0C2F9C5
:105A5000114D0024A000295810480A4608F0B0FB58
:105A6000641C022CF6DB70BD0D0AE69C89E6958865
:105A7000E79A84E6B8A9E68EA7E8A1A8E695B0E67D
:105A80008DAEE69DA5E6BA90E58F82E695B0E5A6D7
:105A900082E4B88B3A00000020010020D495010078
:105AA00030B50546242041430F4895B008181446E8
:105AB000C1681422684605F0CDF8002C12DB401EA8
:105AC00084420FDC09A008F085F9002D02D0284699
:105AD00008F080F9A000694642180958526806A0EB
